:100000000C94DD070C940F100C94E80F0C94050869
:100010000C9405080C9405080C9405080C9405082C
:100020000C9405080C9405080C9405080C9405081C
:100030000C9405080C948E100C9405080C9405087B
:100040000C949E0F0C9405080C945C100C943610C4
:100050000C9405080C9405080C9405080C940508EC
:100060000C9405080C940508540100FF10000000D2
:100070000000000000000000000000000000000080
:10008000000000000000000000000000000200006E
:1000900000000000000000000000000000023030FE
:1000A000000A3E7FC0C0C0C0C0C07F3E0A00000042
:1000B00000000000007F3E0A3E7FC1C1C1C1C1C136
:1000C00040000A0041C1C1C1C1C1C17F3E0A000058
:1000D0000101010101017F3E0A0040C1C1C1C1C14E
:1000E000C17F3E0A3E7FC1C1C1C1C1C17F3E0A007E
:1000F000000000000000007F3E0A3E7FC1C1C1C178
:10010000C1C17F3E0A0040C1C1C1C1C1C17F3E0221
:1001100006060000000000000A3E7F010101010107
:10012000017F3E0A3E7FC1C1C1C1C1C17F3E0A3EBF
:100130007FC1C1C1C1C1C141000A3E7FC1C1C1C1AE
:10014000C1C17F3E0A3E7FC1C1C1C1C1C141000AD8
:100150003E7F0101010101010100000000000000DB
:10016000000000000000000000000000000000008F
:10017000000000000A3E7F0101010101017F3E0AEB
:100180003E7FC1C1C1C1C1C17F3E0A3E7FC1C1C165
:10019000C1C1C141000A3E7FC1C1C1C1C1C17F3ED1
:1001A0000A3E7FC1C1C1C1C1C141000A3E7F0101F8
:1001B000010101010100000000000000000000003A
:1001C000000000000000000000000002FFFF00002F
:1001D000000000000000000000000000000000001F
:1001E000000000000000000000000000000000000F
:1001F00000020000000000000000000000000000FD
:1002000000020000000A7CFE030303030303FE7CDC
:100210000A0000000000000000FE7C0A0002838348
:1002200083838383FE7C0A0082838383838383FEAC
:100230007C0A7CFE808080808080FE7C0A7CFE833D
:10024000838383838302000A7CFE83838383838387
:1002500002000A0002030303030303FE7C0A7CFE80
:10026000838383838383FE7C0A7CFE8383838383EF
:1002700083FE7C0260600000000000000A7CFE83B8
:100280008383838383FE7C0A7CFE808080808080E1
:1002900000000A000080808080808000000A00004A
:1002A000808080808080FE7C0A7CFE8383838383C1
:1002B0008382000A7CFE8383838383838200000021
:1002C000000000000000000000000000000000002E
:1002D00000000000000000000A7CFE83838383830B
:1002E00083FE7C0A7CFE80808080808000000A0083
:1002F0000080808080808000000A000080808080F4
:100300008080FE7C0A7CFE83838383838382000A51
:100310007CFE8383838383838200000000000000CF
:1003200000000000000000000000000000000002CB
:10033000FFFF0000000000000023002600290054F9
:100340000100FF100000000000000000000000009D
:10035000000000000000000000000000000000009D
:10036000000000000400000000023333060000001B
:100370000000000A03033F3F03033F3F03030A1843
:100380003830307F7F30391F0F08303C0F0318247E
:1003900024180A0F1F3930303B1F0E3F3302000074
:1003A00005030F1C38300530381C0F030A060707F9
:1003B000011F1F010307060A000000000F0F0000C5
:1003C000000002B070090000000000000000000200
:1003D000303008303C0F03000000000A0F1F393096
:1003E000303030381F0F0500303F3F300A3F3F317B
:1003F000303030303030300A0C1C3830303030384B
:100400001F0F0A030303030303033F3F030A0C1CEC
:100410003830303030381F0F0A0F1F38303030304E
:10042000381F0F0A0000003F3F00000000000A0FC5
:100430001F3930303030391F0F0A00000000000033
:1004400000003F3F02181802583808000103070E49
:100450001C38300906060606060606060608303869
:100460001C0E070301000A000000003737010000DE
:10047000000A0F1F38333636333637130A3F3F0131
:1004800001010101013F3F0A3F3F30303030303938
:100490001F0F0A0F1F3830303030381C0C0A3F3F16
:1004A0003030303030381F0F093F3F30303030307F
:1004B0003030093F3F000000000000000A0F1F38E5
:1004C00030303031391F0F0A3F3F0000000000007C
:1004D0003F3F04303F3F30080C1C383030381F0F8E
:1004E000093F3F0103070E1C3830093F3F303030D1
:1004F000303030300A3F3F0000000000003F3F0A2C
:100500003F3F0000000001033F3F0A0F1F3830301B
:100510003030381F0F0A3F3F00000000000000008D
:100520000A0F1F383030363E1C3F370A3F3F00016C
:1005300003070E1C38300A18383030303030391F7D
:100540000F080000003F3F0000000A0F1F38303046
:100550003030381F0F0A03070E1C38381C0E0703F3
:100560000A0F1F383C1F1F3C381F0F0A3C3E070371
:10057000010103073E3C0A000000003F3F0000006D
:10058000000A3C3E3733313030303030043F3F30AA
:10059000300800000000030F3C300430303F3F08BB
:1005A00000000000000000000AC0C0C0C0C0C0C001
:1005B000C0C0C0030000000A0F1F38303030303098
:1005C0003F3F0A3F3F3030303030381F0F090F1F98
:1005D000383030303030300A0F1F38303030303063
:1005E0003F3F090F1F3B33333333333307003F3F64
:1005F0000000000009C3C7CECCCCCCEC7F3F093F44
:100600003F00000000003F3F023F3F0860E0C0C0E5
:10061000C0E07F3F083F3F03070F1C383004003F16
:100620003F300A3F3F00003F3F00003F3F093F3F50
:1006300000000000003F3F090F1F38303030381FE6
:100640000F09FFFF0C0C0C0C0E07030903070E0C1F
:100650000C0C0CFFFF093F3F0000000000000009E8
:10066000303133333333331E0C06001F3F3030102C
:10067000090F1F38303030303F3F09070F1C38302A
:10068000381C0F070A0F1F38381F1F38381F0F0A72
:1006900030381C0F07070F1C383009C1C3C7C6C646
:1006A000C6E67F3F0A30383C3E37333130303006C3
:1006B00000010F1F383002FFFF0630381F0F010006
:1006C000000000000000000000000000000000002A
:1006D000000000000000000000000000000000001A
:1006E0000000040000000002FFFF060F0F00000FD3
:1006F0000F0A3030FFFF3030FFFF30300A387CEE19
:10070000C6FFFFC6C68E0C08060909C6F03C0F03DB
:100710000A0080CCFEF3F39E0C0000020F0F05F0E0
:10072000FC0E07030503070EFCF00A3070E0C0FC66
:10073000FCC0E070300AC0C0C0C0FCFCC0C0C0C07B
:1007400002000009C0C0C0C0C0C0C0C0C0020000DC
:1007500008000000C0F03C0F030AFCFE87C36333AF
:100760001B0FFEFC050406FFFF000A0C8EC7C3C367
:10077000C3C3E77E3C0A0C0E070303C3C3C7FE3C9A
:100780000A80C0E070381C0EFFFF000A3F3F333381
:1007900033333373E3C30AFCFEE763636363E7C683
:1007A000840A03030383C3E3733B1F0F0A1CBEF7D2
:1007B000E3C3C3E3F7BE1C0A3C7EE7C3C3C3C3E77E
:1007C000FFFE02303002303008C0E0F0381C0E0767
:1007D00003096060606060606060600803070E1C71
:1007E00038F0E0C00A0C0E07030383C3E77E3C0A1F
:1007F000FCFE07F31B1BF307FEFC0AF8FE8683834F
:10080000838386FEF80AFFFFC3C3C3C3C3E7FE3C6E
:100810000AFCFE0703030303070E0C0AFFFF030392
:1008200003030307FEFC09FFFFC3C3C3C3C30303E2
:1008300009FFFFC3C3C3C3C303030AFCFE070303CB
:100840000383878E8C0AFFFFC0C0C0C0C0C0FFFFFB
:100850000403FFFF0308030303030303FFFF09FF70
:10086000FFE0F0381C0E070309FFFF000000000046
:1008700000000AFFFF0E1C78781C0EFFFF0AFFFF26
:100880001C3870E0C080FFFF0AFCFE07030303036F
:1008900007FEFC0AFFFFC3C3C3C3C3E77E3C0AFCD9
:1008A000FE070303030307FEFC0AFFFFC3C3C3C322
:1008B000C3E77E3C0A3C7EE7C3C3C3C3C3870608C5
:1008C000030303FFFF0303030AFFFF000000000010
:1008D00000FFFF0AFFFF000000000000FFFF0AFF0B
:1008E000FF000000000000FFFF0A0F1F38F0E0E0EB
:1008F000F0381F0F0A0F1F3870E0E070381F0F0A22
:1009000003030383C3E3733B1F0F04FFFF030308C9
:10091000030F3CF0C0000000040303FFFF08180CA5
:10092000060303060C180A00000000000000000087
:100930000003030F0C0AC0E0703030303030F0F0AC
:100940000AFFFF303030303070E0C009C0E0703056
:1009500030303030300AC0E0703030303030FFFF9F
:1009600009C0E07030303070E0C007C0FCFEC7C383
:10097000C30309C0E07030303030F0F009FFFF30C1
:1009800030303070E0C002F6F608000000000000D1
:10099000F6F608FEFE0080C0E070300403FFFF00A2
:1009A0000AF0F03030F0F03030F0E009F0F03030A4
:1009B000303070E0C009C0E07030303070E0C00905
:1009C000F0F03030303070E0C009C0E070303030CE
:1009D00030F0F009F0F03030303070E0C009C0E0A5
:1009E000303030303030300660FCFC60600009F0A0
:1009F000F00000000000F0F009F0F000000000003E
:100A0000F0F00AF0F0000000000000F0F00A307092
:100A1000E0C08080C0E0703009F0F000000000000D
:100A2000F0F00A3030303030B0F0F0703006C0E016
:100A3000FC3E070302FFFF0603073EFCE0C0000088
:100A400000000000240027002A000000000025000C
:100A500028002B000404040404040404020202021B
:100A60000202030303030303010204081020408071
:100A700001020408102001020408102000000008F0
:100A80000002010000030407000000000000000055
:100A9000460000FF0800053E5B4F5B3E053E6B4F86
:100AA0006B3E051C3E7C3E1C05183C7E3C18051C1C
:100AB000577D571C051C5E7F5E1C0400183C180502
:100AC000FFE7C3E7FF040018241805FFE7DBE7FF93
:100AD0000530483A060E05262979292605407F0566
:100AE000050705407F05253F055A3CE73C5A057F31
:100AF0003E1C1C0805081C1C3E7F0514227F221486
:100B000005FFFFFFFFFF05F0F0F0F0F003FFFFFF30
:100B100005000000FFFF050F0F0F0F0F0508047EF3
:100B200004080510207E20100508082A1C08050866
:100B30001C2A080805AA005500AA05AA55AA55AA04
:100B40000530383E383005060E3E0E060200000124
:100B50005F0307000705147F147F1405444AFF4A0A
:100B600032056313086463053649493648010703B3
:100B70003E41410341413E05082A1C2A0805080858
:100B80003E08080260E0040808080802606005608A
:100B900010080403053E5149453E03427F4005715C
:100BA00049494946054149494936050F0808087F22
:100BB000054F49494931053E49494930050301017D
:100BC000017F05364949493605064949493E026CC7
:100BD0006C026CEC03081422041414141403221481
:100BE00008050159090906053E415D594E057E0972
:100BF00009097E057F49494936053E414141410584
:100C00007F4141413E057F49494941057F09090925
:100C100001053E41414979057F0808087F03417F6E
:100C20004105304141413F057F08142241057F4085
:100C3000404040057F020C027F057F0408107F05BD
:100C40003E4141413E057F09090906053E4141619A
:100C50007E057F09192946054649494931050101A3
:100C60007F0101053F4040403F051F2040201F05F8
:100C70003F4038403F0563140814630503047804BB
:100C800003056151494543037F41410503040810B1
:100C9000600341417F0504020102040480808080DA
:100CA00003010204043844447C047F44443804387B
:100CB000444444043844447F043854545804047E63
:100CC00005010418A4A47C047F040478017D038436
:100CD000857C047F102844017F057C047804780417
:100CE0007C040478043844443804FC242418041890
:100CF0002424FC047C040408045854543403047F62
:100D000004043C40407C041C20407C053C403040B6
:100D10003C046C10106C041CA0A07C046454544C63
:100D20000408364141017F044141360804020102B2
:100D300001057F4141417F053E55555541053844E8
:100D4000443844057C2A2A3E14057E020206060524
:100D5000027E027E02056355494163053844443CE6
:100D60000405407E201E200506027E020208631351
:100D7000086463006060052A2A2A2A2A03514A442B
:100D800003444A51050000FF010303E080FF0536DC
:100D9000123624360302050202181802101005301C
:100DA00040FF0101041F01011E00000000090101B4
:100DB0007F017F020C027F000000000000010001A3
:100DC0007D0418247E2404447E454105221C141C05
:100DD0002205012A7C2A010177044E555539030268
:100DE0000002077E81BDA5A5817E0326292F050867
:100DF000142A1422040808081803080808077E812A
:100E0000BD95A9817E0501010101010302050203CF
:100E1000242E24031915120315150A02020104F8E1
:100E20002040780506097F017F021818040080A081
:100E3000C003121F10032629260522142A140808AD
:100E4000402F1008041E117C08402F100804625522
:100E50004C0915553F1008041E117C053048484DBB
:100E600040057815161478057814161578057A1546
:100E700014157A0578161516790578151415780560
:100E80007814151478077E09097F494941059EA108
:100E9000612121057C54554644057C545645440542
:100EA0007E55544546057C5554454403457E4403D0
:100EB000447E4503467D4603457C4505087F494100
:100EC0003E057C0A11227D053844454638053844E4
:100ED000464538053A4544453A05384645463905BC
:100EE0003845444538052214081422057C625A46C8
:100EF0003E053C4041423C053C4042413C053C42B1
:100F000041423C053C4140413C0502047A05020453
:100F10003F12120C057E49494E30043845467C0488
:100F20003844467D043846457E043A45467D0438BB
:100F300045447D04304A4D7A07205454385454585F
:100F4000049CA26222043855565804385456590459
:100F50003856555A043855545902017A027A010319
:100F60000279020302780204304B4B3C047A090AEE
:100F7000710430494A300430484A3104304A493219
:100F80000432494A3104394444390508082A08081A
:100F90000438544C380438414278043840427904CB
:100FA0003842417A043A40407A0418A0A27904FCFD
:100FB000282810041AA0A07AB51011241FBECFEF64
:100FC000D8E0DEBFCDBF23E0AEE4B1E001C01D92AA
:100FD000A134B207E1F711E0A0E0B1E0E0EEF1E307
:100FE00002C005900D92AE34B107D9F717E0CDEDF0
:100FF000D7E004C02197FE010E945514CC3DD107D3
:10100000C9F70E94FF100C94EE180C94000030E019
:1010100020E080912E0390912F0340913003509156
:1010200031032417350738F4820F931FFC01108217
:101030002F5F3F4FEECF08952091A1023091A20281
:101040002817390721F09093A2028093A102809182
:10105000A1029091A202FC01349121E0343509F003
:1010600020E02093A302FC013296E491F0E0F0939B
:10107000A502E093A402FC013396E491F0E0F09322
:10108000A702E093A602FC013496E491F0E0F0930D
:10109000A902E093A80281E00895833081F028F44A
:1010A000813099F08230A9F008958730A9F0883016
:1010B000C9F08430B1F4809180008F7D03C08091AD
:1010C00080008F7780938000089584B58F7784BDEA
:1010D000089584B58F7DFBCF8091B0008F7780938A
:1010E000B00008958091B0008F7DF9CF1F93CF930A
:1010F000DF93282F30E0F901E458F54F8491F9018E
:10110000E859F54FD491F901EC5AF54FC491CC232D
:10111000A9F0162F81110E944D08EC2FF0E0EE0F80
:10112000FF1FE65BF54FA591B4918FB7F894EC9152
:10113000111108C0D095DE23DC938FBFDF91CF91D2
:101140001F910895DE2BF8CFCF93DF9390E0FC0141
:10115000E859F54F24918C5A954FFC0184918823CE
:10116000D1F090E0880F991FFC01E05CF54FA5914C
:10117000B491FC01E65BF54FC591D491623071F4F6
:101180009FB7F8943C91822F809583238C93E881BC
:101190002E2B28839FBFDF91CF9108958FB7F894AE
:1011A000EC912E2B2C938FBFF6CFE82FF0E0E45874
:1011B000F54FE491E33029F150F4E130C1F0E23031
:1011C000D9F060387105BCF560E00C947608E73022
:1011D00011F1E83041F1E430A1F7809180008062A4
:1011E0008093800070938B0060938A00089584B58B
:1011F000806884BD67BD089584B5806284BD68BD84
:1012000008958091800080688093800070938900A9
:101210006093880008958091B00080688093B0004A
:101220006093B30008958091B00080628093B00015
:101230006093B400089561E0C8CF3FB7F8948091FF
:10124000000290910102A0910202B091030226B522
:10125000A89B05C02F3F19F00196A11DB11D3FBFEE
:10126000BA2FA92F982F8827BC01CD01620F711DBD
:10127000811D911D42E0660F771F881F991F4A95B7
:10128000D1F708958F929F92AF92BF92CF92DF9243
:10129000EF92FF926B017C010E941D094B015C01E2
:1012A000C114D104E104F104B9F00E941D096819C8
:1012B00079098A099B09683E73408105910580F38D
:1012C00021E0C21AD108E108F10888EE880E83E017
:1012D000981EA11CB11CE4CFFF90EF90DF90CF903F
:1012E000BF90AF909F908F9008952FB7F894609122
:1012F000FC017091FD018091FE019091FF012FBFD3
:1013000008950895AF92BF92CF92DF92EF92FF922D
:101310000F931F93CF93DF936C017B018B01040F1D
:10132000151FEB015E01AE18BF08C017D10759F0B9
:101330006991D601ED91FC910190F081E02DC601FB
:101340000995892B79F7C501DF91CF911F910F91F5
:10135000FF90EF90DF90CF90BF90AF900895FC0189
:10136000538D448D252F30E0842F90E0821B930B0A
:10137000541710F0CF96089501970895FC01918DB0
:10138000828D981761F0A28DAE0FBF2FB11D5D96B3
:101390008C91928D9F5F9F73928F90E008958FEF55
:1013A0009FEF0895FC01918D828D981731F0828D09
:1013B000E80FF11D858D90E008958FEF9FEF089560
:1013C000FC01918D228D892F90E0805C9F4F821BC4
:1013D00091098F739927089584E092E00E94E009B3
:1013E00021E0892B09F420E0822F089580E090E02D
:1013F000892B29F00E94EC0981110C9400000895BA
:10140000FC01A48DA80FB92FB11DA35ABF4F2C9179
:10141000848D90E001968F739927848FA689B78970
:101420002C93A089B1898C91837080648C93938D67
:10143000848D981306C00288F389E02D80818F7D0A
:1014400080830895EF92FF920F931F93CF93DF93C2
:10145000EC0181E0888F9B8D8C8D98131AC0E889F0
:10146000F989808185FF15C09FB7F894EE89FF89BF
:101470006083E889F98980818370806480839FBF5D
:1014800081E090E0DF91CF911F910F91FF90EF905D
:101490000895F62E0B8D10E00F5F1F4F0F7311276D
:1014A000E02E8C8D8E110CC00FB607FCFACFE889A8
:1014B000F989808185FFF5CFCE010E94000AF1CF26
:1014C000EB8DEC0FFD2FF11DE35AFF4FF0829FB71C
:1014D000F8940B8FEA89FB8980818062CFCFCF930C
:1014E000DF93EC01888D8823B9F0AA89BB89E8894C
:1014F000F9898C9185FD03C0808186FD0DC00FB6F2
:1015000007FCF7CF8C9185FFF2CF808185FFEDCF6F
:10151000CE010E94000AE9CFDF91CF91089508958E
:101520006F927F928F929F92AF92BF92CF92DF92F3
:10153000EF92FF920F931F93CF93DF935C01EB0128
:101540004A016B0183E0D594C7948A95E1F7AB011A
:101550004770552780E890E002C0959587954A9599
:10156000E2F7682E782E709410E000E0E22EF12C65
:10157000F501808191810817190708F05AC0C4014C
:10158000800F911F2091340330913503A701002E65
:1015900002C0559547950A94E2F740FF29C082178B
:1015A0009307F4F42091320330913303C217D30729
:1015B000BCF4D7FD15C097FD13C020913603289FBA
:1015C000F001299FF00D1124CF018C0D9D1DE0919C
:1015D0002E03F0912F03E80FF91F80818629808365
:1015E00060E070E0CB010E9442090F5F1F4FC0CF47
:1015F00082179307ACF72091320330913303C2175F
:10160000D30774F7D7FDECCF97FDEACF20913603CF
:10161000289FF001299FF00D1124CF018C0D9D1DF5
:10162000E0912E03F0912F03E80FF91F80818721AD
:10163000D6CFDF91CF911F910F91FF90EF90DF9068
:10164000CF90BF90AF909F908F907F906F900895B4
:101650002F923F924F925F926F927F928F929F92C2
:10166000AF92BF92CF92DF92EF92FF920F931F93B0
:10167000CF93DF93EA017093AB026093AA02FC015F
:10168000A080B1801A01F8E02F0E311CA0E84A2E8C
:10169000512CF50121915F01222309F4EBC0409107
:1016A000A4025091A5026091A1027091A202CA0108
:1016B000F5E0CF2ED12CA22FB0E03B016C0C7D1CAD
:1016C0008A179B0750F4F3016490712CFFEF6F1A97
:1016D0007F0AC60CD71C0196F0CF2058E5E0EE2E0D
:1016E000F12C30E0CB018E0D9F1D4217530748F4BB
:1016F000FC01849190E00196E80EF91E4F5F5F4F68
:10170000F1CFF3016490FC01849101E010E0712CB1
:101710006091AA027091AB02C801019786159705E6
:1017200008F03FC0E091A102F091A2024601800EB4
:10173000911E8091A302882349F19701200F311F48
:10174000E20FF31F2491AE0188EA92E00E94900A12
:10175000E091A102F091A202E80DF91D249160919F
:10176000AA027091AB02CB0101969093AB028093D9
:10177000AA02A10188EA92E00E94900A60E070E06B
:10178000CB010E9442090F5F1F4FC2CFE80DF91D28
:101790002491CB0101969093AB028093AA02AE01F3
:1017A000E9CF77FD5DC080913203909133036817D4
:1017B00079070CF055C02091340330913503C217DE
:1017C000D3070CF04DC08091A8029091A902AE0100
:1017D000480F591F421753071CF0C9018C1B9D0B62
:1017E00018161906ECF59B0127703327A20102C0D9
:1017F000559547952A95E2F79A0177FF02C0695FF0
:101800007F4F33E0759567953A95E1F74091360340
:1018100050E08C0F9D1F849FF001859FF00D949FD9
:10182000F00D1124CB018E0F9F1FC49FF001C59FA7
:10183000F00DD49FF00D11246E0F7F1F20956817B7
:10184000790770F4E0912E03F0912F03E60FF71F54
:1018500030813223308330913603630F711DEFCF17
:101860008091AA029091AB0201969093AB02809373
:10187000AA020FCFDF91CF911F910F91FF90EF90B0
:10188000DF90CF90BF90AF909F908F907F906F90A0
:101890005F904F903F902F900895FC0101900020A1
:1018A000E9F73197AF01481B590BBC0184E092E086
:1018B0000C9482098F929F92AF92BF920F931F93C5
:1018C000CF93DF93CDB7DEB7A1970FB6F894DEBF05
:1018D0000FBECDBF19A2423008F44AE08E010F5D61
:1018E0001F4F842E912CB12CA12CA50194010E9494
:1018F0003314E62FB901CA01EA30F4F4E05DD801EF
:10190000EE938D01232B242B252B79F790E080E09B
:10191000109719F0CD010E944D0CA1960FB6F894C6
:10192000DEBF0FBECDBFDF91CF911F910F91BF9052
:10193000AF909F908F900895E95CE1CFCF92DF92B6
:10194000EF92FF92CF93DF936B017C016DE284E015
:1019500092E00E94220AEC0166277727CB016C19DE
:101960007D098E099F094AE00E945A0C8C0F9D1F29
:10197000DF91CF91FF90EF90DF90CF900895CF92BD
:10198000DF92EF92FF9260E083E00E9476080E946F
:101990007509C090F501D090F601E090F701F09044
:1019A000F8019B01AC012C193D094E095F09690141
:1019B0007A01C092F101D092F201E092F301F0922B
:1019C000F40182E090E09093FA018093F9010E9483
:1019D00075096093E6017093E7018093E8019093A5
:1019E000E9011092EB013BE0C31A37E2D30AE108A8
:1019F000F1084BE0C416D104E104F104F8F480E1ED
:101A000097E2A0E0B0E08093F1019093F201A093FF
:101A1000F301B093F40182E291E00E944D0C6091D9
:101A2000F1017091F2018091F3019091F4014AE08B
:101A30000E945A0C8BE291E00E944D0C8091F101C2
:101A40009091F201A091F301B091F401803197429D
:101A5000A105B10541F481E08093EA01FF90EF9088
:101A6000DF90CF9008951092EA01F8CFFC018081B9
:101A70009181009711F00C94F7140895EF92FF9262
:101A80000F931F93CF93DF93EC01198218821B826F
:101A90001A821D821C8261157105A9F17B01FB016F
:101AA00001900020E9F731978F01061B170BB80151
:101AB0006F5F7F4F90E080E00E9480150097B9F043
:101AC000998388831B830A832C813D81232B11F406
:101AD000FC0110821D830C83B70188819981DF91FD
:101AE000CF911F910F91FF90EF900C944616888133
:101AF0009981009711F00E94F714198218821D82B3
:101B00001C821B821A82DF91CF911F910F91FF904F
:101B1000EF900895AF92BF92CF92DF92EF92FF9233
:101B20000F931F93CF93DF93CDB7DEB72C970FB6EC
:101B3000F894DEBF0FBECDBF6B017C018091F9012F
:101B40009091FA01029721F40E9407080E94BF0CAD
:101B500088E690E00E941C08C701B60128EE33E039
:101B600040E050E00E94331469012AE030E040E098
:101B700050E00E943314122F032F5A018EE291E09D
:101B80000E944D0CB6010D2C000C880B990B97FF91
:101B90005EC00E949E0C86E391E00E944D0C4AE0DC
:101BA000612F702FC5010E945A0C8BE291E00E94B8
:101BB0004D0C0F931F93DF92CF928BE391E09F9395
:101BC0008F937E0187E0E80EF11CFF92EF920E9456
:101BD0004D16F70101900020E9F731978F010E199A
:101BE0001F09B701CE0101960E943E0D93E0000F40
:101BF000111F9A95E1F760E470E0601B710B77FFAD
:101C000002C06F5F7F4F759567956350710950E013
:101C100040E0CE0101960E94280BCE0101960E9461
:101C2000360D0FB6F894DEBF0FBECDBF2C960FB6A3
:101C3000F894DEBF0FBECDBFDF91CF911F910F9102
:101C4000FF90EF90DF90CF90BF90AF9008954AE063
:101C50000E945A0CA0CF60E083E00E9476081092A8
:101C6000E0011092E1011092FA011092F901109234
:101C7000F5011092F6011092F7011092F8011092FE
:101C8000F1011092F2011092F3011092F4011092FE
:101C9000E6011092E7011092E8011092E90110921A
:101CA000EA010E9407080E94070888E690E00E9467
:101CB0001C0860E070E0CB010C948A0DCF92DF929B
:101CC000EF92FF920F931F93CF93DF93EAE8FAE02E
:101CD0008491E6E7FAE0D491E2E6FAE0C491CC23FD
:101CE00009F4AEC081110E944D08EC2FF0E0EE0F18
:101CF000FF1FEB5CFC4FA591B491EC91ED2391E0BB
:101D000080E009F490E0C92FD82F809102019091D2
:101D100003018C179D0751F00E94750960935501CE
:101D20007093560180935701909358010E94750952
:101D3000C0905501D0905601E0905701F0905801A5
:101D40006C197D098E099F096A317105810591051C
:101D5000D8F180910001909101018C179D07A1F1AC
:101D6000D0930101C0930001209771F581E0809329
:101D700054018091F9019091FA01009721F083308C
:101D8000910509F060C00E9407080E9475096093E0
:101D9000F5017093F6018093F7019093F80110928A
:101DA000F1011092F2011092F3011092F40181E01E
:101DB00090E09093FA018093F90111E010935301A0
:101DC00061E083E00E94760880915401882309F441
:101DD00048C08091530198ECC92ED12CE12CF12CF4
:101DE000823031F480EDC82E87E0D82EE12CF12C22
:101DF0000E94750900914F011091500120915101ED
:101E000030915201601B710B820B930B6C157D0599
:101E10008E059F0540F060E083E00E9476081092F6
:101E2000540110925301D0930301C0930201DF913A
:101E3000CF911F910F91FF90EF90DF90CF90089579
:101E4000D0E0C0E062CF8130910521F40E94BF0C48
:101E500012E0B4CF029709F0B1CF0E942B0E13E02D
:101E6000ADCF0E94750960934F017093500180932C
:101E7000510190935201D7CF0E945E0E20913903F9
:101E800030913A03E3E036952795EA95E1F78091A2
:101E90004E01829FA001839F500D11248091370332
:101EA00090913803840F951F40E020913B033091BF
:101EB0003C0374E0369527957A95E1F742171306AF
:101EC00018F52091390330913A03220F331F280F60
:101ED000391F682FFC018091390390913A0353E038
:101EE000969587955A95E1F75E2F561B5817190658
:101EF00040F481918EBD00000DB407FEFDCF8EB57C
:101F0000EACF4F5FC901D1CF80ED97E0199902C0A8
:101F10000197E1F789B120914E0190E1299F90014D
:101F200011248F70822B8BB981E083B983B98091A2
:101F30004E018F5F8F7080934E0108951F920F9214
:101F40000FB60F9211242F933F938F939F93AF93CC
:101F5000BF938091FC019091FD01A091FE01B09191
:101F6000FF013091FB0123E0230F2D3758F5019637
:101F7000A11DB11D2093FB018093FC019093FD01F5
:101F8000A093FE01B093FF018091000290910102A5
:101F9000A0910202B09103020196A11DB11D809390
:101FA000000290930102A0930202B0930302BF913A
:101FB000AF919F918F913F912F910F900FBE0F90F6
:101FC0001F90189526E8230F0296A11DB11DD2CFB0
:101FD0001F920F920FB60F9211242F933F934F939E
:101FE0005F936F937F938F939F93AF93BF93EF9381
:101FF000FF93E0910601F09107010995FF91EF91A0
:10200000BF91AF919F918F917F916F915F914F9110
:102010003F912F910F900FBE0F901F9018951F9218
:102020000F920FB60F9211242F933F934F935F930C
:102030006F937F938F939F93AF93BF93EF93FF9390
:10204000E0910401F09105010995FF91EF91BF9195
:10205000AF919F918F917F916F915F914F913F9140
:102060002F910F900FBE0F901F9018951F920F92F7
:102070000FB60F9211242F933F934F935F936F935B
:102080007F938F939F93AF93BF93EF93FF9384E0DE
:1020900092E00E94000AFF91EF91BF91AF919F9152
:1020A0008F917F916F915F914F913F912F910F9001
:1020B0000FBE0F901F9018951F920F920FB60F92A0
:1020C00011242F938F939F93EF93FF93E09114022A
:1020D000F09115028081E0911A02F0911B0282FDBD
:1020E0001BC0908180911D028F5F8F7320911E0213
:1020F000821741F0E0911D02F0E0EC5FFD4F958FFB
:1021000080931D02FF91EF919F918F912F910F90DE
:102110000FBE0F901F9018958081F4CF1F920F92E1
:102120000FB60F9211242F933F934F935F936F93AA
:102130007F938F939F93AF93BF93EF93FF93E09120
:102140000801F09109010995FF91EF91BF91AF91BD
:102150009F918F917F916F915F914F913F912F91BF
:102160000F900FBE0F901F901895E4E0F2E01382DD
:10217000128288EE93E0A0E0B0E084839583A6838A
:10218000B78384E191E09183808385EC90E095872B
:10219000848784EC90E09787868780EC90E0918B31
:1021A000808B81EC90E0938B828B82EC90E0958B1E
:1021B000848B86EC90E0978B868B118E128E138E1B
:1021C000148EEEE2F3E080E490E09583848380E176
:1021D00090E09783868388E0808780E890E093830F
:1021E00082838EEA92E091838083E1EAF2E01286B4
:1021F00011861486138680E99AE00C941C08CF930C
:10220000DF93CDB7DEB72A970FB6F894DEBF0FBEC7
:10221000CDBF789484B5826084BD84B5816084BD6F
:1022200085B5826085BD85B5816085BD80916E0074
:10223000816080936E0010928100809181008260A5
:1022400080938100809181008160809381008091E2
:1022500080008160809380008091B10084608093D1
:10226000B1008091B00081608093B00080917A00CD
:10227000846080937A0080917A00826080937A00F3
:1022800080917A00816080937A0080917A008068E2
:1022900080937A001092C10062E08EE00E94A40850
:1022A00061E083E00E94A4088EEA92E090933803F4
:1022B0008093370380E490E090933A03809339034E
:1022C00080E190E090933C0380933B038AB1806F60
:1022D0008AB984B1836084B98091B100887F8160BC
:1022E0008093B10080918100887F8160809381001C
:1022F0001FB7F89480915901811127C0EEE5FAE0EB
:102300008491E2E7FAE09491E82FF0E0EE0FFF1FEE
:10231000E05CF54FA591B491EC91E92321F461E0E3
:102320008AE00E94760861E08AE00E94A4088CB5E9
:1023300080618CBD8CB580648CBD61E08DE00E94B5
:10234000A40861E08BE00E94A408809159018F5F8E
:10235000809359011FBF61E089E00E94A40860E8F2
:1023600070E089E00E94D50861E083E00E94A40843
:102370006FEE70E083E00E94D50880E180938100D9
:102380001092800080E49FE1909387008093860004
:1023900081E1809381008CE39FE090930901809319
:1023A000080181E080936F000E94070861E083E0EC
:1023B0000E94760866E970E080E090E00E944209A1
:1023C00060E083E00E9476080E942B0EE0911402E8
:1023D000F091150282E08083E0911002F0911102E9
:1023E0001082E0911202F09113028FEC8083109220
:1023F0001C02E0911802F091190286E08083E091BE
:102400001602F0911702808180618083E0911602AC
:10241000F0911702808188608083E0911602F0912C
:102420001702808180688083E0911602F091170284
:1024300080818F7D808360E4262E312C7AE0472EC8
:10244000512C612C712C11E006E08091F9019091E2
:10245000FA018130910509F056C00E9475094B01BF
:102460005C018091F5019091F601A091F701B09186
:10247000F80175016401C81AD90AEA0AFB0AC70102
:10248000B601A30192010E9433142F833887498734
:102490005A876091F1017091F2018091F30190915E
:1024A000F401A30192010E9433148F819885A985BC
:1024B000BA8582179307A407B50761F0C092F101AE
:1024C000D092F201E092F301F092F401C701B6015B
:1024D0000E948A0D8092ED019092EE01A092EF0190
:1024E000B092F0011093EC010E945E0EE0E0F0E08B
:1024F000EF2B09F4AACF0E94EC09882309F4A3CF9B
:102500000E940000A0CF009761F460E070E0CB0172
:102510000E948A0DA3E0B0E0B093FA01A093F90104
:10252000E3CF029709F78091EB01811150C00E941F
:102530007509C090ED01D090EE01E090EF01F090B0
:10254000F0016C197D098E099F0968387341810576
:10255000910508F053C08091EC01882371F00E942E
:1025600007081092EC016091F1017091F2018091E5
:10257000F3019091F4010E948A0D8091EA01882371
:1025800009F40AC10E947509C090E201D090E301EC
:10259000E090E401F090E5016C197D098E099F0936
:1025A0006A3F71058105910590F06091E101612715
:1025B0006093E10183E00E9476080E9475096093B0
:1025C000E2017093E3018093E4019093E5010E949E
:1025D0007509C090E601D090E701E090E801F09025
:1025E000E9016C197D098E099F0960367A4E8105D3
:1025F000910508F479CF0E942B0E76CFB090DF01C1
:102600008091DE01F090EA01B0FE67C08823C9F135
:102610000E94070855E4C52E51E0D52EF11004C0E4
:1026200049E4C42E41E0D42E8FE393E00E941C08BD
:10263000F60101900020E9F731977F01EC18FD08C1
:10264000B601CE0101960E943E0D0E9DC0010F9D68
:10265000900D1124B101681B790B77FF02C06F5FE9
:102660007F4F759567956750710941E050E0CE0145
:1026700001960E94280BCE0101960E94360D109201
:10268000DE010E947509C090DA01D090DB01E09074
:10269000DC01F090DD016C197D098E099F09693E0E
:1026A00073408105910578F01093DE01B394B092E8
:1026B000DF010E9475096093DA017093DB0180935A
:1026C000DC019093DD018091DF018D3008F455CF5E
:1026D0001092DF011093EB0150CF882391F225E493
:1026E000C22E21E0D22EF11004C099E4C92E91E04F
:1026F000D92E8FE393E00E941C08F6010190002080
:10270000E9F731977F01EC18FD080E940708B60130
:10271000CE0101960E943E0D0E9DC0010F9D900DB1
:102720001124B101681B790B77FF02C06F5F7F4FE7
:10273000759567956750710941E050E0CE010196AB
:102740000E94280BCE0101960E94360D80E8EEEA29
:10275000F2E0AAE5B1E001900D928A95E1F7AEEAC8
:10276000B2E0BD01FB012FEF2193BF018EE293E0A8
:102770008E179F07B9F78AE591E05D91FC014191C1
:10278000CF019D012150310940954523F901408336
:10279000A617B70791F773CFF090E00125E02F154A
:1027A00008F415CF0E9475098090E2019090E30132
:1027B000A090E401B090E501681979098A099B09A4
:1027C000683E73408105910508F401CF6091E101F5
:1027D00061276093E10183E00E9476080E947509F9
:1027E0006093E2017093E3018093E4019093E5012B
:1027F000F394F092E001EBCE2F923F924F925F92D2
:102800006F927F928F929F92AF92BF92CF92DF9200
:10281000EF92FF920F931F93CF93DF93CDB7DEB765
:10282000CA1BDB0B0FB6F894DEBF0FBECDBF0994F9
:102830002A88398848885F846E847D848C849B8450
:10284000AA84B984C884DF80EE80FD800C811B815E
:10285000AA81B981CE0FD11D0FB6F894DEBF0FBE8D
:10286000CDBFED010895A1E21A2EAA1BBB1BFD01ED
:102870000DC0AA1FBB1FEE1FFF1FA217B307E4075F
:10288000F50720F0A21BB30BE40BF50B661F771FB7
:10289000881F991F1A9469F7609570958095909597
:1028A0009B01AC01BD01CF010895EE0FFF1F059004
:1028B000F491E02D09940F931F93CF93DF9382300F
:1028C000910510F482E090E0E0913F03F091400325
:1028D00030E020E0B0E0A0E0309799F42115310518
:1028E00009F44AC0281B390B24303105D8F58A81F8
:1028F0009B816115710589F1FB0193838283FE0140
:1029000011C0408151810281138148175907E0F0BD
:102910004817590799F4109761F012960C93129783
:1029200013961C933296CF01DF91CF911F910F9197
:10293000089500933F0310934003F4CF2115310510
:1029400051F04217530738F0A901DB019A01BD018C
:10295000DF01F801C1CFEF01F9CF909340038093DD
:102960003F03CDCFFE01E20FF31F819391932250DD
:10297000310939832883D7CF20913D0330913E031D
:10298000232B41F420910C0130910D0130933E0333
:1029900020933D0320910A0130910B01211531054F
:1029A00041F42DB73EB740910E0150910F01241B09
:1029B000350BE0913D03F0913E03E217F307A0F4DD
:1029C0002E1B3F0B2817390778F0AC014E5F5F4F85
:1029D0002417350748F04E0F5F1F50933E03409376
:1029E0003D03819391939FCFF0E0E0E09CCFCF93A4
:1029F000DF930097E9F0FC01329713821282A091D5
:102A00003F03B0914003ED0130E020E01097A1F4C6
:102A100020813181820F931F20913D0330913E032D
:102A20002817390709F061C0F0933E03E0933D0396
:102A3000DF91CF910895EA01CE17DF07E8F54A81CB
:102A40005B819E0141155105B1F7E901FB83EA83E2
:102A500049915991C40FD51FEC17FD0761F480818E
:102A600091810296840F951FE90199838883828161
:102A700093819B838A83F0E0E0E012968D919C9194
:102A800013970097B9F52D913C911197CD010296BE
:102A9000820F931F20913D0330913E032817390781
:102AA00039F6309751F51092400310923F03B093DE
:102AB0003E03A0933D03BCCFD383C28340815181A9
:102AC000840F951FC817D90761F44E5F5F4F888147
:102AD0009981480F591F518340838A819B81938339
:102AE00082832115310509F0B0CFF0934003E093C4
:102AF0003F039ECFFD01DC01C0CF13821282D7CFEE
:102B0000B0E0A0E0E6E8F5E10C94FE138C0100973C
:102B100051F4CB010E945B148C01C801CDB7DEB724
:102B2000E0E10C941A14FC01E60FF71F9C012250FF
:102B30003109E217F30708F49DC0D901CD91DC916A
:102B40001197C617D70798F0C530D10530F3CE01DD
:102B500004978617970708F3C61BD70B2297C193D4
:102B6000D1936D937C93CF010E94F714D6CF5B0174
:102B7000AC1ABD0A4C018C0E9D1EA0913F03B09172
:102B80004003512C412CF12CE12C109731F5809110
:102B90003D0390913E038815990509F05CC04616E7
:102BA000570608F058C080910A0190910B010097D8
:102BB00041F48DB79EB740910E0150910F01841BD7
:102BC000950BE817F90708F055C0F0933E03E09322
:102BD0003D03F90171836083A0CF8D919C91119782
:102BE00012966C90129713967C901397A815B905BE
:102BF00059F56C0142E0C40ED11CCA14DB0420F16B
:102C0000AC014A195B09DA011296159780F06282CD
:102C1000738251834083D9016D937C93E114F10455
:102C200071F0D7011396FC93EE93129776CF22960C
:102C30008C0F9D1FF90191838083F301EFCFF093F7
:102C40004003E0933F0369CF4816590608F42C016E
:102C50007D01D3019ACFCB010E945B147C010097C8
:102C600049F0AE01B8010E943D16C8010E94F71458
:102C7000870153CF10E000E050CFFB01DC0102C020
:102C800001900D9241505040D8F70895FB01DC01AE
:102C900001900D920020E1F70895AEE0B0E0E3E589
:102CA000F6E10C940A140D891E8986E08C831A8340
:102CB00009838FEF9FE79E838D83AE01475E5F4F51
:102CC0006F89788DCE0101960E9470162F8138850C
:102CD000020F131FF80110822E96E4E00C942614C4
:102CE000ABE0B0E0E6E7F6E10C94FC137C013B01BD
:102CF0008A01FC0117821682838181FFC8C1CE013F
:102D000001965C01F7019381F30193FD859193FF97
:102D100081913F01882309F453C1853239F493FD31
:102D2000859193FF81913F01853229F4B70190E0AD
:102D30000E946018E7CF912C212C312CFFE1F31574
:102D400038F08B3211F190F4803209F1833229F19D
:102D500037FC3CC020ED280F2A3050F536FE20C04D
:102D60008AE0989E200D1124922E06C08D3291F09B
:102D7000803371F7689430F8F30193FD859193FFE8
:102D800081913F018111DACF21C0689431F86894B4
:102D900032F8F2CF689433F8EFCF689434F8ECCF80
:102DA000EAE02E9E200D1124222E689435F8E4CFFF
:102DB0008E3229F436FC04C1689436F8DDCF8C36A7
:102DC00019F4689437F8D8CF8836B1F2982F9F7DE0
:102DD00095549330E0F08336A1F18337C1F1833508
:102DE00009F063C02801F2E04F0E511CF801C080C9
:102DF000D180692D70E036FC02C06FEF7FEFC60115
:102E00000E944A184C01689437F882010AC00C5F8E
:102E10001F4FFFE3F98388248394912C6501E89484
:102E200037F833FE2DC0522C8114910471F55520D2
:102E300009F468CFB70180E290E00E9460185A94CC
:102E4000F6CFF801808189830E5F1F4FE4CF280100
:102E5000F2E04F0E511CF801C080D180692D70E066
:102E600036FC02C06FEF7FEFC6010E9455184C017F
:102E70008201D5CFB70180E290E00E9460182A94C9
:102E80002814190409F0B0F7CECFF60137FC85916C
:102E900037FE81916F01B70190E00E9460185110D8
:102EA0005A94F1E08F1A9108BFCF843619F0893611
:102EB00009F077C0F80137FE6BC0608171818281B3
:102EC00093810C5F1F4FF32DFF763F2E97FF09C0B4
:102ED00090958095709561957F4F8F4F9F4F689427
:102EE00037F82AE030E0A5010E949018C82ECA18D1
:102EF0008C2C432C36FE0CC0E89440F8C91440F4E6
:102F000034FE05C032FC03C0F32DFE7E4F2E892C0B
:102F100044FE95C0FE01EC0DF11D8081803309F067
:102F200087C0242D297E422E842D8870582E43FC84
:102F300095C040FE8FC09C2C821418F42C0C922C4F
:102F4000981844FE91C0B70180E390E00E94601899
:102F500042FE09C088E790E041FE02C088E590E0AB
:102F6000B7010E946018C91408F48AC0CA94D12C11
:102F70009FEFC91AD90ACA0CDB1CF60182916F01B6
:102F8000B70190E00E946018AC14BD04B1F74FCFB8
:102F900060817181072E000C880B990B0E5F1F4F0B
:102FA00092CFD32CE894D4F82AE030E0853739F179
:102FB000232D297FD22E8F3601F148F48835A9F0D0
:102FC000F701868197812B96E2E10C9418148037E3
:102FD00049F08837A9F7D4FE02C06894D2F820E1FE
:102FE00030E00DC06894D4F8F6CF34FE03C0822FD1
:102FF0008660D82E20E132E002C028E030E0F801FF
:10300000D7FE0FC060817181828193810C5F1F4F59
:10301000A5010E949018C82ECA183D2CE89437F8D4
:1030200067CF6081718190E080E00E5F1F4FF0CF2D
:1030300042FC02C0839478CF8394839475CF842D0F
:10304000867809F471CFF6CFB70180E290E00E9454
:10305000601883948214C0F3512C73CF522C5818EB
:10306000821408F46ECFF8CF842D867809F47BCFD4
:103070008BE241FE80E247FC8DE2B70190E071CF28
:10308000B70180E390E00E9460189A946CCF8FEFB4
:103090009FEF99CFFC010590615070400110D8F767
:1030A000809590958E0F9F1F0895FC016150704090
:1030B00001900110D8F7809590958E0F9F1F08956D
:1030C0000F931F93CF93DF93182F092FEB018B8161
:1030D00081FD09C01FEF0FEF812F902FDF91CF915E
:1030E0001F910F91089582FF14C02E813F818C8122
:1030F0009D81281739073CF4E881F981CF010196B9
:103100009983888310838E819F8101969F838E830C
:10311000E3CFE885F985812F0995892BA1F3DACFD3
:10312000FA01AA27283051F1203181F1E8946F93F8
:103130006E7F6E5F7F4F8F4F9F4FAF4FB1E03ED09E
:10314000B4E03CD0670F781F891F9A1FA11D680F3C
:10315000791F8A1F911DA11D6A0F711D811D911D6F
:10316000A11D20D009F468943F912AE0269F1124E4
:103170003019305D3193DEF6CF010895462F477048
:10318000405D4193B3E00FD0C9F7F6CF462F4F70A3
:10319000405D4A3318F0495D31FD4052419302D001
:1031A000A9F7EACFB4E0A6959795879577956795A7
:1031B000BA95C9F700976105710508959B01AC01A7
:1031C0000A2E06945795479537952795BA95C9F7CE
:1031D000620F731F841F951FA01D0895F894FFCFE1
:1031E00001000100810981098F0A0000410380006C
:1031F00000000000220A8209AF096F0AE009BE0937
:10320000D2094D454E414E473A20000D0A007365E4
:10321000636F6E6420002063732000253032643AAF
:0E322000253032640057494E004C4F53450094
:00000001FF
